:020000040000FA
:1000000000580020AD1A0100731A0200991A01006D
:10001000991A0100991A0100991A010000000000C4
:10002000000000000000000000000000611C010052
:10003000991A0100000000002D1C0100991A01000E
:10004000451E01005F340200451E0100451E0100EF
:10005000451E0100451E0100451E0100451E010010
:100060002F340200451E0100451E010049340200E4
:10007000451E0100451E0100451E0100451E0100F0
:10008000451E0100451E0100451E0100451E0100E0
:10009000451E0100451E0100451E0100451E0100D0
:1000A000451E0100451E0100451E0100451E0100C0
:1000B000451E0100451E0100451E0100451E0100B0
:1000C000451E0100451E0100451E0100451E0100A0
:1000D000451E0100451E0100451E0100451E010090
:1000E0002DE9F00791E8F807B2E802105B1854EB2D
:1000F0000C04B2E802104D4156EB0C06B2E80210B7
:100100004F4158EB0C08B2E8021059EB01095AEBC9
:100110000C0A80E8F80780410130BDE8F00770471D
:100120002DE9F00791E8F807B2E802105B1A74EBCA
:100130000C04B2E802108D4176EB0C06B2E8021016
:100140008F4178EB0C08B2E8021079EB01097AEBE9
:100150000C0A80E8F80780414042BDE8F00770478C
:100160002DE9F007524290E87800B1E88007174087
:10017000DB1918EA020854EB080419EA020955EBE6
:1001800009051AEA020A56EB0A0678C090E87800D8
:10019000B1E8800717407B4118EA020854EB0804D5
:1001A00019EA020955EB09051AEA020A56EB0A0692
:1001B00078C080410130BDE8F00770472DE9F007B5
:1001C000524290E87800B1E880071740DB1B18EA3C
:1001D000020874EB080419EA020975EB09051AEA2A
:1001E000020A76EB0A0678C090E87800B1E880074A
:1001F0001740BB4118EA020874EB080419EA020927
:1002000075EB09051AEA020A76EB0A0678C0804106
:100210004042BDE8F00770472DE9F00152424FF02F
:10022000040890E8300091E8C000A31B1340E41AD2
:10023000F618EB1B1340ED1AFF1830C0C0C1B8F11F
:100240000108EED1BDE8F001704700BF00B592E8AB
:10025000DC072DE9DC07B1E8805702B4A7FB0251A7
:100260000A95A8FB020BE7FB6310E9FB62B00B9158
:10027000A8FB0351EAFB6201E7FB64B5E7FB6605F7
:10028000E8FB6615CDF830B0A9FB03B6EAFB6316B0
:10029000ECFB6356E8FB640BE9FB641BEAFB645B65
:1002A000ECFB646B0D90ACFB0230059CEEFB6250E6
:1002B000E9FB6460EAFB64B0E7FB6431E8FB64518E
:1002C000069CE8FB6461E9FB64B1EAFB64010E9300
:1002D000A7FB0432079CE7FB6462E8FB64B2E9FB1E
:1002E0006402EAFB6412049CE9FB6453EAFB646366
:1002F000089CE7FB64B3E8FB6403E9FB6413EAFBD7
:1003000064230F955DF8049B99E80006DDF80080F2
:10031000A9FB0854EAFB68B4DDF81080ECFB680424
:10032000EEFB6814E9FB6824EAFB6834DDF804801E
:10033000EEFB6865E9FB68B5EAFB6805DDF814804B
:10034000ECFB6815EEFB6825E9FB6835EAFB6845C0
:100350000F96DDF80880AEFB0876E9FB6806EAFB3D
:100360006816DDF81880ECFB6826EEFB6836E9FBC2
:100370006846EAFB6856DDF80C80ECFB68B7EEFBDC
:100380006807E9FB6817EAFB6827DDF81C80ECFBCF
:100390006837EEFB6847E9FB6857EAFB686708B017
:1003A00000BD00BF2DE9F14F87B0FFF74FFFDDF82B
:1003B0001C8008F1200888E8FF00FFBC87E87F0860
:1003C000BDE8F08F00B591E89857A3FB0352019563
:1003D000A3FB0401E3FB6420E3FB67100292A3FB91
:1003E0000752E3FB6802E4FB6415E3FB6805E3FBEB
:1003F00069250391A4FB07B6E3FB6926E3FB6A5674
:10040000E4FB670BE4FB682BE3FB6A5BE3FB6C6BD1
:100410000490A4FB0810E4FB6950E3FB6C60E3FB71
:100420006EB0E7FB6721E4FB6951E4FB6A61E3FB23
:100430006EB1E4FB6E010592A7FB0832E4FB6A6231
:10044000E4FB6CB2E4FB6E02E7FB6E12E7FB685361
:10045000E7FB6963E4FB6CB3E7FB6C03E7FB6E133C
:10046000E8FB6E230695A7FB0954E7FB6AB4E7FB9C
:100470006C04E8FB6C14E8FB6E24E9FB6E34E8FBCB
:100480006865E7FB6AB5E8FB6A05E8FB6C15E9FB04
:100490006C25E9FB6E35EAFB6E450796A8FB0976ED
:1004A000E8FB6A06E9FB6A16E9FB6C26EAFB6C3698
:1004B000EAFB6E46ECFB6E56E8FB69B7E9FB6907A1
:1004C000E9FB6A17EAFB6A27EAFB6C37ECFB6C472F
:1004D000ECFB6E57EEFB6E6700BD00BF2DE9F14FE0
:1004E00087B0FFF76FFFDDF81C8008F1200888E86F
:1004F000FF00FFBC87E87F08BDE8F08F30B44FF005
:10050000000310F8014B11F8015B013A84EA05047D
:1005100043EA0403F5D1A3F101034FEAD37030BCE1
:10052000704700BF4FF0000310F8012B013943EA78
:100530000203F9D1A3F101034FEAD370704700BF62
:1005400030B411F8014B12F8015B6C4000F8014B1C
:10055000013BF6D130BC70472DE9F00791E8F80770
:10056000B2E802105B1854EB0C04B2E802104D41E3
:1005700056EB0C06B2E802104F4158EB0C08B2E8FB
:10058000021059EB01095AEB0C0A8941B3F1FF3310
:1005900074F1FF3475F1FF3576F1000677F100074D
:1005A00078F1000879F101097AF1FF3A51F100017F
:1005B0005B184C414D4156F1000657F1000758F1C8
:1005C000000859EBD1795AEB010A80E8F807BDE839
:1005D000F00770472DE9F00791E8F807B2E802103C
:1005E0005B1A74EB0C04B2E802108D4176EB0C063A
:1005F000B2E802108F4178EB0C08B2E8021079EBF8
:1006000001097AEB0C0A89415B184C414D4156F1C6
:10061000000657F1000758F1000859EBD1795AEB61
:10062000010A80E8F807BDE8F007704718EB0408F6
:1006300059EB05095AEB060A5BEB070B5FF0000C60
:100640004CF1000C18EB050859EB06095AEB070AA8
:100650005BEB070B50EB0C005FF0000C51EB0C0157
:1006600052EB0C0263414CF1000CB8EB070879F136
:1006700000097AF1000A7BEB040BA841B141A241C9
:10068000B3416CF1000CBBEB050BB041B941AA4181
:10069000BB416CF1000C4CF001068CF0020718EB2A
:1006A000060859EB6C095AEB6C0A7BEB6C0B70EB90
:1006B0006C0471EB6C0572EB670653EB6C076CEB2B
:1006C0006C0C18EB0C0059EB0C015AEB0C025BF1B3
:1006D000000354F1000455F1000556EBDC7657EBAE
:1006E0000C0770472DE9F14F87B0FFF7AFFDDDF83C
:1006F0001080DDF81490DDF818A0FFF797FFBDE833
:10070000000FFFF793FF03B05DF8048B88E8FF004C
:10071000BDE8F08F2DE9F14F87B0FFF753FEDDF80C
:100720001080DDF81490DDF818A0FFF77FFFBDE81A
:10073000000FFFF77BFF03B05DF8048B88E8FF0034
:10074000BDE8F08F1FB50B4B01934FF49473ADF8D8
:10075000083008238DF80A3083788DF80B3001A912
:10076000FF2301208DF80C3000F0CCFB05B05DF8C4
:1007700004FB00BF01E300001FB50A4B01934FF4D7
:100780002073ADF8083008238DF80A3001A94378AA
:100790008DF80B3000208DF80C0000F0B3FB05B095
:1007A0005DF804FB8BE700001FB572B6184B1D689F
:1007B000E5B9BFF34F8F1749174BCA6802F4E062DF
:1007C0001343CB60BFF34F8F00BFFDE7B2FBF6F2E0
:1007D000DCB20133002AF9D104F110036B4403F8B1
:1007E0000C2C0A2234B901A8A847E2E702460023EC
:1007F0000A26EDE7631E04AEDCB256FA83F3B0FBC3
:10080000F2F602FB1600303003F80C0C3046E9E734
:10081000880D002000ED00E00400FA0507B50C4B40
:100820001A7B8DF80120DA7A8DF8002068469A7AD2
:100830005B7AADF80420ADF8023002F04BFC18B141
:10084000DE210320FFF7B0FF03B05DF804FB00BF1B
:10085000880D00202DE9F34104460D4671B91B4B6C
:1008600093F82A3053B9012101A80193FFF7F2FF51
:1008700020B94FF403710320FFF796FF2368144F4C
:10088000DFF850800733002D23F0070323600CBFEF
:100890002046002000F012FB002657F8043B0BB165
:1008A000404698470136032EF7D100F07BFB031E2C
:1008B00009DB206818440DB1002804DB206001200A
:1008C00002B0BDE8F0810020FAE700BF880D0020EB
:1008D000080500208C0D002037B5B0FA80F101909A
:1008E0000546490901A8FFF7B5FF18B96FF00B00DD
:1008F00003B030BD2A4CA17A607A237BE27A0331BF
:1009000003300BF092F9011EF0DB01982379627934
:100910000330134420F00300002D019003FB01F18C
:1009200008BF002000F080FC019B0DB9C342DDD45C
:100930001844A3790190C3B1E17C1944E3791944C7
:10094000FF29D3DC033020F00300002D0190E28961
:1009500008BF0020C9B200F0D7FC031EC6DB019817
:1009600018440DB90028C1DB0190217C99B1A3790D
:100970008BB10198073020F00700002D019008BFCF
:10098000002003F01DFF031EB0DB019818440DB9D1
:100990000028ABDB01900DB90198A9E70020A7E77B
:1009A000880D002038B5044690B309F0BDFF10B99A
:1009B0004FF0FF3038BD0DF0DBFFB0F5FA7FF7D810
:1009C000164D17482C6000F0FBF9164B0024C3E9C4
:1009D00000449C6026222146281D85F82A400AF002
:1009E000A5FB01236B71AB711B236B7240F21B33B0
:1009F0006B8102232B731F23EB8108232B74EFF3EE
:100A0000108572B600F056FD2DB962B62846D1E7C2
:100A10006FF01500CEE72046CCE700BF880D002020
:100A20001D0800000805002010B500283CD1214C0D
:100A300094F82A30032B34D059B1002A37D0023928
:100A4000052931D8DFE801F0031422302528137876
:100A500063710020FFF740FF0028B7BF0123022386
:100A600084F82A306FF00B00A8BF84F82A3010BD3C
:100A70009378E3B1D378D3B113781A2B17D953787D
:100A80001A2B14D91368C4F80930E2E71378A3715C
:100A9000DFE71388E381DCE71388FF2B07D8237493
:100AA000D7E74FF0FF30E2E76FF02C00DFE76FF0A1
:100AB0001500DCE7880D0020F8B50D46074660B349
:100AC00059B311F0070428D1154E96F82A30012B9E
:100AD00002D16FF00B00F8BD032B02D14FF0FF30B5
:100AE000F9E700F0A9F80028F8D02846FFF7F4FE4F
:100AF0000028EEDB38460AF08BF886F82B000DF064
:100B00007BFE96F82B00214602F078FBFFF786FE6D
:100B1000032386F82A302046DDE76FF01500DAE778
:100B2000880D002010B5084C94F82A30032B05D10D
:100B300002F07CFB94F82B000AF086F80BF06BF9BE
:100B4000002084F82A0010BD880D002050B1074B0A
:100B500003F1140253F8041B40F8041B9342F9D12B
:100B6000002070476FF01500704700BF978E02009D
:100B700010B5074B93F82A4034B902F009FB054B36
:100B8000054A5A60204610BD4FF0FF30FBE700BF1A
:100B9000880D0020080500204507000010B5074B10
:100BA00093F82A4034B902F007FB054B054A1A6056
:100BB000204610BD4FF0FF30FBE700BF880D00203E
:100BC000080500207907000010B5054B93F82A406E
:100BD0001CB902F0A9FA204610BD4FF0FF30FBE728
:100BE000880D002010B5054B93F82A401CB90CF075
:100BF0009CF9204610BD4FF0FF30FBE7880D002028
:100C000010B5054B93F82A401CB90CF091F9204619
:100C100010BD4FF0FF30FBE7880D0020024B02684B
:100C20001A600020704700BFB40D0020014B1B6804
:100C3000184700BFB40D0020024B1868003818BFD9
:100C400001207047B40D00202DE9F743294E0446DA
:100C5000071D2848376003F0C7F80228054607D16A
:100C6000244920460AF0EDFA284603B0BDE8F08397
:100C7000042838D13378072B18D13E2000F050F8E3
:100C800078B9F378327901A943EA02236846ADF8CE
:100C900000300AF0B0FD0028DBD053210820FFF718
:100CA00083FD052000F07CF80028EAD0314620467C
:100CB0000AF02CFBB0F5817F01D37221EEE700280A
:100CC000C7D094F8008094F80290404600F028F8CD
:100CD0000028BED0B8F13E0FC6D1484600F060F8FB
:100CE0000028C1D1B5E70828BED1024920460AF044
:100CF000D7FAB9E7B80D0020074B4FF0FF3141F6A6
:100D0000FF72C3E9001205490022C1E900221F2138
:100D1000C3E90212704700BFC0040020FC0D002090
:100D20003F280CD801380B4BC0F3421200F01F00D3
:100D300053F8223023FA00F000F001007047FF283A
:100D400006D04038C0F34212034B00F01F00EFE71B
:100D500001207047C0040020FC0D00200146074B15
:100D6000006849681A4603C240F48C221A6041F0B8
:100D7000107242F4FF625A60704700BFC004002046
:100D80000246024B0068516803C37047FC0D002007
:100D90000246024B0068516803C37047C804002034
:100DA0000138064BC0F3421203EB820300F01F0030
:100DB0009B6823FA00F000F001007047C004002097
:100DC000014B1860704700BF040E002010B5FFF7FC
:100DD00093FF0BF0FCFC034B1B68044603B19847E0
:100DE000204610BD040E00200B880288F0B5C3F326
:100DF0000E049EB204F11403C57CC35A02352A4482
:100E00002B4497B213FA82F3013B4288B3FBF7F30A
:100E100013FB07439BB29A42044A93BF22EA06039C
:100E2000324013439BB20B80F0BD00BF0080FFFF38
:100E30004A1E062A08B50346084604D84FF4D17165
:100E40001520FFF7B1FC094A914202D940F2A311E3
:100E5000F6E711B903B1196008BD2BB11B68002278
:100E6000C3E901211A1D1A600430F5E7FAFFFF7F7C
:100E700010B5114B00EB41041A786389B3FBF2F310
:100E800003FB0223013A1A44B2F5706F027928BFBE
:100E900000231A448378B2FBF3F0194403FB1020BB
:100EA000091AB1FBF3F003FB101313446FEA434339
:100EB0006FEA5343638110BD080E002010B5104B3C
:100EC000C8B15A78022A04D040F22B111720FFF73C
:100ED0006BFC03225A70026812F0070102D04FF433
:100EE0009871F3E75C685A6022440260C3E9031119
:100EF0009A60596110BD0122C3E901005A70F9E7F7
:100F0000080E00202DE9F041254E96F801E00EF084
:100F1000FD0CBCF1010F04D040F245111720FFF782
:100F200043FC91F80680B8F1080F02D940F247114E
:100F3000F4E7CF798FB34546022D726838BF02259A
:100F40007B1D5C0002EB43036A1E13446D422B4081
:100F50008D884544013DC8F100022A40B2F5803F2A
:100F600002D34FF4A971D9E7BEF1030F12D106EBFA
:100F700080001C1BC56815B140F25711CEE7C46054
:100F8000A770228084F803C0087A09682071080CD1
:100F9000E080218107FB02337360BDE8F08100BF70
:100FA000080E00202DE9F047364C6378012B65D000
:100FB000032B04D040F267111720FFF7F5FBD4E9AB
:100FC00001329A4202D04FF4B571F5E7254600236D
:100FD00005F80C3B1E460222994655F82200013ABC
:100FE00058B190F804808178B8F1FF0F2FD180F8C4
:100FF00004908E423CBFCEB20123511CEDD103B10F
:101000002670022640F6FF6955F826709FBB013E08
:10101000FAD2042363700020BDE8F08755F82CE075
:10102000BEF1000F06D09EF804A0C24504BF9EF892
:1010300002E077440CF1FF3CBCF1000FEEDA3944DA
:10104000FF2907D903B126704FF48371B4E79446A2
:101050000027F1E70771CCE707EB41033846A3F817
:101060000A90FFF705FF08F10108BB785FFA88F1E5
:101070008B42F1D8CBE74FF00008F6E70223606817
:101080006370C9E7080E0020F8B54FF6FF730380C0
:10109000184B03EB81030546D868B8B1867803790D
:1010A000B3FBF6F206FB1233DBB219460A1D00EB66
:1010B0004202B2F902705488002F09DB0131B1FB02
:1010C000F6F206FB1211C9B28B42EFD10020F8BD37
:1010D000FF29FBD0C4F30E03C4782B8024B94FF44E
:1010E000D9711720FFF760FB5380BDE8F8400AF084
:1010F0007BBD00BF080E00201D4B03EB810370B5C4
:10110000DC68054644B3030404D54FF4E0711720AE
:10111000FFF74AFB014620460AF048FDFF2801463A
:1011200004D02046BDE870400AF05EBDA078B5FB53
:10113000F0F300FB1353DBB219460A1D04EB420621
:10114000B6F90260002E09DB0131B1FBF0F200FBC1
:101150001211C9B28B42F0D1002070BDFF29FBD023
:101160008B4204EB42021CBF0023E3705580D8E79A
:10117000080E0020094B03EB810310B5DC68014623
:1011800020460AF013FDFF28014604D02046BDE8A2
:1011900010400AF029BD002010BD00BF080E00203D
:1011A000F8B5104B03EB81030746DC680146204687
:1011B0000AF0FCFCFF28054611D0E688238953EA93
:1011C000064606D0014620460AF00EFD0146384686
:1011D000B04720462946FFF74BFE0020F8BD05200A
:1011E000FCE700BF080E002038B50E4B827903EBF8
:1011F00082030446D86808B9052038BD8278E179B1
:101200009142F9D24B1CE37100EB41035D89B3F9C4
:101210000A30002BF3DBA5800AF0E6FC20600020FA
:10122000EBE700BF080E002070B5044610F0030085
:101230000E4603D04F211820FFF7B6FAFFF7F8FD4E
:10124000054624B1034831460460FFF7F1FD284606
:1012500070BD00BF200E00202DE9F14FDFF870B007
:101260009DF828A09DF82C901E46DBF8003007461C
:101270000D4690461BB961211820FFF795FA52469A
:10128000092140460AF018FB4A4684B2092130463B
:101290000AF012FB14FA80F1DBF800000AF05BFCA4
:1012A000386018B9286001B0BDE8F08F04442C60A4
:1012B00038685346414609220AF0B7FA28684B4677
:1012C0000922314601B0BDE8F04F0AF0AEBA00BFC6
:1012D000200E002070B50E4604460AF000FB0546BD
:1012E00030460AF0FCFA044B2A1821461868BDE87B
:1012F00070400AF054BC00BF200E0020014B18685B
:101300000AF01DBC200E00201F2AF8B50446134623
:101310000ED89200033222F00303B3F5803F2DD2A2
:10132000184DACB1A00710D05F210920FFF73CFA9F
:10133000FF2B4FEA420204D9FF339A42A8BF1A4654
:10134000E8E77C2AB8BF7C22E4E729706C602B8137
:1013500022F0030201EB81031204D80001276B681D
:10136000120C0025EEB28E4200D3F8BD14B126183F
:101370001F705E60104401352833F3E74FF0FF30F3
:10138000F3E700BF240E002038B5144A14785368E0
:101390000021C8B2844203D8AB210920FFF704FA28
:1013A0001846013105782833002DF2D000218170D4
:1013B00001241289447044688161C161920800F17E
:1013C0002001051D21F8022B994245F8044B1444D5
:1013D000F8D100234361037038BD00BF240E002004
:1013E0002DE9F8434B7880460C4602F0040602F0E3
:1013F000FB07D3B1DFB12E4BD4F804901D89B7BBE6
:1014000001236370AD08A761E76104F120034A4638
:10141000211D04F1280023F8025B984241F8042BB7
:101420002A44F8D10023636101E0002FE3D0FF23B9
:10143000A370002E18BF0226A3191B7D032B03D116
:10144000022F1CBF0136F6B2A31901221A7506F14C
:101450000C0204EB8606002324F812307268A37095
:10146000C8F80020A8F804304046BDE8F883002101
:1014700014226170A01809F059FEB5F5FF7F0FD254
:101480006B08ED1AADB209EB0502C4F8049025848F
:10149000A2606384C4F80C90A5842261E384C6E74B
:1014A000B5F5EE6F4FF0FF03EBD940F27265EAE756
:1014B000240E0020134B012200214FF0FF309A60D0
:1014C000C3F80012C3F80803C3F80015C3F80425D5
:1014D0009A60C3F80803C3F80015C3F804250A4945
:1014E0000A4A03F580334FF40040C3F80825C1F8D9
:1014F0008000BFF34F8FBFF36F8FC1F88001C3F837
:101500000825704700F0004000E100E00000F63FD1
:101510000A46192302F8033B0448C368C1F80330A4
:101520000369536043699360704700BF300E002029
:10153000024B5A8C02435A845B6A1847300E0020D3
:10154000014B00215B6A1847300E002010B5154C86
:1015500005F096FD05F026F9208DFFF7F1FF237EBB
:1015600063B12246104952F80C3BE3606368536054
:1015700004F11900A36893600CF057FA0B4B228D0D
:1015800093E8030003F0A6F9236B188803F0CCF866
:10159000A36B94F8341094F835009847002384F82E
:1015A0003C3010BD300E0020111500005C0E0020F4
:1015B000034B93F83C300BB1FFF7C8BF704700BF37
:1015C000300E002070B51D4C256B636C236495F8BC
:1015D0009430064694F848000BB10430C0B295F838
:1015E00069102EB9FF2803D195F868308B4201D0DD
:1015F00005F05EFB95F89430D3B1E06C05F0DAFDB0
:10160000012384F86830D5E93E23E16C206CC4E9FD
:10161000182305F07DF816B9304605F00BFE95F855
:101620006810002005F050FE022384F83C3070BDA5
:10163000206C05F0BFFD05F0B5F8ECE7300E00209A
:1016400008B5094B93F83C20022A04D040F25321FC
:101650002720FFF7A9F8DA7A42F00102DA72BDE832
:101660000840FFF773BF00BF300E002010B50E4CCE
:10167000A26F137803F00303032B04D1D378022B5A
:1016800001D1002010BDE06F0AF0BCF90028F9D1AB
:10169000A36F1B7803F00303032BF2D001F0BCFE11
:1016A00080F00100C0B2EDE7300E00202DE9F743D5
:1016B000424C94F83C30256B012B06460F465FFAEE
:1016C00083F804D040F2A4412720FFF76DF895F885
:1016D00084303BB1002185F884100420FFF728FFF7
:1016E00085F88680A16F0B7803F00303032B05D1E7
:1016F00095F88A3013B90220FFF71AFFA26F13780A
:1017000003F00303032B02D0537813BB012385F8A6
:101710008A3095F89430B3B1D5E93E01236B94F843
:101720004890C4E918014FF0010893F8690084F863
:1017300068800AF072FB00220346009220494A4664
:10174000404604F09FFF36B103B0BDE8F043FFF719
:10175000FDBE0223DBE7002FF6D0D4F88030304600
:1017600098470028F0D094F83430002BECD194F84E
:101770008430DD06C3F3001001D5FFF777FF636CFB
:10178000D4F888201B78C3F300132AB9B4F88C204E
:1017900013B1B2FA82F35B09628C910709D5A36F8A
:1017A000DB78022BD0D1002003B0BDE8F043FFF777
:1017B00009BF002AC8D10343F5D1C5E7300E002088
:1017C000800E002010B5064B93F83C2002F0FF0479
:1017D00022B91C7603F076F8204610BD0C24FBE7F6
:1017E000300E00200A4B0B4A70B506460D461A60B3
:1017F000FFF7E8FF18B1E1212720FEF7D5FF064CDF
:10180000012104F18E000CF00AF86664E56470BDF5
:1018100014050020E41F0000300E0020024B0122BE
:1018200083F8B020704700BF300E00202DE9F04350
:10183000824D85B002AE86E8030095F83C100C9FFF
:1018400001F0FF0411B90AB103B127B940F26F11D9
:101850002720FEF7A9FF96E8030005F12C0C8CE881
:10186000030085F8B04085F8344085F8B14085F82C
:10187000354085F8B24085F8B3406C842C852C6BDC
:10188000C5F880306A62AF6305F050FA04F08AFF51
:1018900094F96C0005F0E8FA606A05F07DFCE069F7
:1018A00005F0E8FA94F8A40005F00AFB2B6B93F816
:1018B000AF310BB105F028FA94F869209D21012081
:1018C00005F056FB5E4B186805F06CFC2369EB676E
:1018D0006369C5F8B43094F8773073B9226F62B198
:1018E000B4F8BE10B4F888308B4206D1B4F8741046
:1018F0000B44A4F8BE3001231360524E04F58073EC
:1019000004F5887718685968324603C20833BB4229
:101910001646F7D1D4F810314B4AC5F86930D4F8DF
:10192000143153602B6B93F88E2093F86860A2F10A
:101930002501012903D993F88F10252960D193F847
:1019400056322BB1012E03D0012B14BF02260126E3
:1019500004F13007314638460CF0F9F831460BF007
:10196000BBFDA38F94F86910834228BF0346384615
:1019700085F8B8300CF0D4F894F8691094F89460B5
:10198000B4F84480042908BF03210BF0A5FD0EB96B
:10199000043080B2404528BF404694F894305FFA46
:1019A00080F885F8B98085F848809BB1D4E93E6716
:1019B00094F869004FF00109C5E9186785F8689047
:1019C0000AF02BFA0022034600921E49424648467E
:1019D00004F058FE0120FFF7F5FD00232B606B603B
:1019E000AB60B4F888306B8023882B8094F8A430E7
:1019F0002B71A36F0BB101221A6005B0BDE8F08313
:101A0000203A012A0CD823290CD093F8363113F050
:101A1000010211D19B079BD5012E18BF022697E723
:101A2000232905D193F8362193F861301340EEE76E
:101A3000032E08BF04268BE7164689E7300E0020E8
:101A400014050020800E0020990E002008B50C4BD4
:101A500093F83C201AB9BDE80840FFF777BD93F82A
:101A60003C20022A04D040F235212720FEF79CFEBC
:101A70001B6BD3F8C801BDE8084005F0ADBB00BF43
:101A8000300E0020014B1876704700BF300E00204A
:101A9000014B93F8B2007047300E0020024B188DB6
:101AA000C0F3C020704700BF300E0020014B93F8F8
:101AB000B1007047300E00202DE9F3411E4D820722
:101AC0002C6B06460F4622D5D5F8883023B940F254
:101AD00095412720FEF768FEB5F88C20296C184642
:101AE000033291F8018009F0A9FA0DF1020201A96F
:101AF0002864D5F8B4000AF018F8019809F0FFFF3F
:101B0000012238604146D5F8B40009F0C5FFF3075B
:101B10000ED5D4E93E32013342F10002C4E93E322F
:101B200094F88C30012B0CBF0023012384F88C30F7
:101B300002B0BDE8F08100BF300E00202DE9F04F6B
:101B4000AB4C002387B0CDE9043394F83C30276BCD
:101B5000022B81468A4604D04FF4A3612720FEF76A
:101B600023FE238D590606D44020FFF7E9FC238D80
:101B700043F04003238597F89430B9F1000F00F04B
:101B80002881B3B104F03CFE04F020FE88B9236C38
:101B90005A7872B11B7897F88C20C3F3C0039A422D
:101BA00007D1012384F83530FFF7D0FC07B0BDE83A
:101BB000F08F236C5978A4F88C1009B3D4F8B400D2
:101BC00009F041FFC4F88800238D97F88B2043F477
:101BD00000732385236C1B78C3F380039A4200F0C3
:101BE000B980256B95F88A30002B3DD0022B11D19E
:101BF000E06F04A909F0BEFE28B940F20E41ADE73E
:101C0000C4F88810E0E7D5E93C32013342F1000224
:101C1000C5E93C3295F88630002185F88A1023B159
:101C200085F886101020FFF783FC95F885309BB16E
:101C3000002685F8856001F0D9FB10B940F22541F6
:101C40008CE731460820FFF773FCD5E93C320133BD
:101C500042F10002C5E93C3295F88B30012B0CBFF4
:101C60000023012385F88B30238D43F40063238503
:101C70004FF0000B216C97F88C200D78C5F3C00352
:101C80009A4240F0988005F00305032D266B63D03F
:101C9000002D6CD196F88C30013B18BF012386F8DB
:101CA0008C30236C5B7833B1D6E93E32013342F19C
:101CB0000002C6E93E3297F893308BB1D7E93C2356
:101CC000002697F8680084F86860C4E918230AF0D1
:101CD000A4F8484900960346FB22304604F0D2FCA3
:101CE000BAF1000F40F08880628C94F8B13012078E
:101CF00003D5A26FD278022A7ED0012B7CD8D4F8EB
:101D0000803001209847002876D094F83480B8F1CC
:101D1000000F71D1266B94F8483096F894208DF816
:101D20000D80002A40F0B380FF2B96F8681003D195
:101D300096F869308B4202D0FF2004F0B9FF96F884
:101D40008A30032B00F23881DFE813F0A400D500BD
:101D50001D012E01CB468DE7238D012043F48053D6
:101D600086F8840023850025FFF7E2FB92E74D7893
:101D7000002D8FD0238D96F8945043F48053238503
:101D800004F040FF042894F8B93006D1002D14BFA8
:101D90001B221F22934228BF1346226C52789A427C
:101DA0000BD8D4F88850002D85D094F8B03073B19A
:101DB0002020FFF7C5FB00257DE794F83430012093
:101DC00043F0100384F8343006F094F9F3E74D46FD
:101DD00060E70BB104F04AFD94F8B130013384F8A8
:101DE000B130238D002543F480632385AB4662E741
:101DF000300E0020800E002005F086FA4FF0010A18
:101E00001DB105A90220FFF757FEBBF1000F0DD051
:101E1000B4F80720B4F805301343B7F8882013430B
:101E20001EBFB4F809300133A4F80930B9F1000F2E
:101E300000F0CA80B4F805300133A4F8053000235F
:101E400084F8B130634802F05DFC049830B109F0C9
:101E500056FE216B0022027202F004F8059B33B19A
:101E6000216B00221A720C22059801F0DBFFBAF1F7
:101E7000000F7FF499AE238D1B063FF597AE8020AF
:101E8000FFF75EFB238D43F0800323858EE604334A
:101E9000DBB249E794F8B830ADF80E304E48A6F8FA
:101EA000583001F093FA50B1A16F4FF48070FFF7F2
:101EB0003FFB012386F8853084F8B3301DE0E06FE6
:101EC0000DF10D020DF10E0109F031FDA06790B189
:101ED00096F8D1307BB99DF80D302BB90380837013
:101EE000A06F01210BF09BFCBDF80E10A06F0BF052
:101EF00062FD0123E0E7394BA36796F88B30A26FB0
:101F0000DB0003F00801137803F0F3030B4396F8AA
:101F10008C10890001F004010B4323F010031370AF
:101F2000FFF7A4FB0028A06F037818BF4FF010083C
:101F300048EA030880F8008096F89330002B3ED0E2
:101F40004378002B3BD0E06C05F034F9002384F893
:101F50006830D6E93C23A16FE06CC4E9182304F093
:101F6000D7FB96F86910012005F0AEF9A26F118831
:101F7000A4F8841091781A4A012384F8B230917041
:101F800084F83C303CE7B6F85830E06FADF80E30DE
:101F90000DF10D020DF10E0109F0C9FCA06700283A
:101FA000A7D140F2F321D9E50B4801F00FFA002840
:101FB0009FD140F2FD21D1E540F20B31CEE505F095
:101FC000F9F804F0EFFBCCE7B4F807300133A4F8DC
:101FD000073037E75C0E0020A80E0020BE0E002060
:101FE000B40E0020411600003D1B0000AD1600009D
:101FF000B11500000B2808B504D940F2B531062010
:10200000FEF7D2FB014B33F8100008BD84410200FB
:102010002DE9F04F8BB0044615460293894690F89F
:1020200069B00AF0CCFF064694F8B001FFF7E2FF72
:1020300094F88F300393064485F00103B6B20593FC
:1020400055BB94F8F431032B26D1039B0D2B23D1E0
:10205000B4F854324B451FD1D4F8FC31C4F8E83100
:10206000A369B4F8CC21C4F8EC31B4F8423213447B
:10207000C4F8F031204604F025FAD4F85832A362AF
:10208000B4F85632A385D4F85C32A361D4F8603238
:102090002362022384F8F431B4F84072B4F88880E3
:1020A000A9EB07073FB204F50473A9EB0808002F5A
:1020B00004930FFA88F86EDAD4E98A234746C4E914
:1020C0008E2301230493CC4B1B7803F0FF05002BD8
:1020D00054D00CF049FC054600284FD0B4F8E0314C
:1020E000012B6DD994F8F431022B69D094F80A527F
:1020F000002D65D194F8B001FFF77CFF94F8F4311E
:1021000000F5C866012BB6B2D9B24CD194F8923022
:10211000D4F828A0032B40D1D4F8EC5155443146D3
:10212000D4F8EC010CF01AFCD4F8E831C4F8E8015A
:10213000A0EB030AD4F8F0313146284603FB0AFA33
:102140000CF00CFCD4F8F851C4F8F801451B3146EA
:10215000A0690CF003FCAA44B4F8CC51D4F8F031D7
:102160004544ED1BDB432B44D4F8FC51451B05FBD8
:1021700003A50123C4F8FC0184F80A3294F8F43171
:10218000DFF874A2032B00F28E81DFE813F01B004E
:1021900016016B003701029B94E728460BF0C4F947
:1021A00000EB0A05BBE7A06931460CF0D7FBB4F899
:1021B000CC51D4F8FC314544ED1BC31A5D43D8E73C
:1021C0000025DBE7012100200BF0AEF98046A06A74
:1021D000314640440CF0C2FB3146C4F8F801A06916
:1021E0000CF0BCFB07A9C4F8FC0108A805F094F8A2
:1021F000079B0093D4E98E01DDE9082308F078FA03
:102200008346204609F02DFED4F84432A66A94F89D
:1022100069001E4405F0C6F9D4F8F811A6F1940738
:102220007F1A00F523404FF47A734744A130B0FB86
:10223000F3F0A38DA7EB0B0730313F1A03EB4101FD
:1022400094F8690009F0F9FDD4F84432FB1A223001
:10225000B3F5917FCAF8040058D240F2C64130204D
:10226000FEF7A2FAA36AD4F8EC01314618440CF048
:1022700075FB3146C4F8F801A0690CF06FFBC4F897
:10228000FC01204609F0EDFDB4F8CC31A66AD4F883
:10229000EC71002B40F08D80029B002B00F08980B8
:1022A00094F8690005F07EF93E44D4F8F871943E44
:1022B000D4E98A23F61BD4F8307280463E4494F861
:1022C0006900B61A05F06EF94FF47A7300F2E73739
:1022D00008F52340B7FBF3F73744A130B0FBF3F028
:1022E000D4F8F811D4F8E831D4F8F021303102FBF9
:1022F0000311A38D3F1A03EB410194F8690009F023
:102300009CFD0123CAF8040084F8F431A6696FF437
:10231000F4731E44D4F8FC31F61ADAF804309E4205
:1023200028BF1E46D4E98E327F1BDF1942F100021E
:102330004FF00008C4E98872C4F8C86184F81082BC
:1023400004F130000BF0EAFBB4F8B811A4F84092A5
:10235000D4E98823A1EB09090FFA89F9C145C4E939
:102360008E23C8BF022384F81882C8BF84F81832AD
:10237000039B06440D2BC4F81462029B00F0968068
:10238000002B40F0948094F8F431002B00F0AD80E5
:10239000A169D4F8FC3104F50470C91A0BF06BF88C
:1023A00080B2002800F0A180149B03B118800120A6
:1023B000ABE0D4F8F801374492E7D4F8FC21A369E4
:1023C000D4F8F001D4F8E8119B1A5F43B4F8CC318B
:1023D0009844C3439844D4F8F831303301FB0033B8
:1023E000A18D94F8690002FB083301EB430109F069
:1023F00024FDCAF8040089E7EC0E0020A369D4F894
:10240000FC219B1A5F4394F88E30252B03D094F85F
:102410008F30252B0AD1B4F85432A9EB03031A04E8
:1024200004D494F85732002B18BF9B46049B63B327
:10243000B4F8CC314BBBD4E98A23D4E98C01824275
:102440008B4102D340F21A5109E794F8690005F074
:10245000A9F8D4F830220646D4E98A01A2F19403FF
:102460001B1A3B4494F86900049305F09BF8049B05
:1024700000F2E7374FF47A7206F52340B7FBF2F724
:102480001F44A130B0FBF2F03F1AB4F8CC11D4F8DD
:10249000FC314144594330314900584609F0CDFCE4
:1024A0001B4B586032E740F23251D8E6EBB1B4F83A
:1024B000E01121B3B4F8E22194F8E431A4F8E22168
:1024C00002FB0333994202F101000EDD94F8183249
:1024D0005BB1002384F81832A4F8E20101F058FD42
:1024E00000F00700013084F8E40194F80B0204F5D1
:1024F000047107F0C9F920B940F27B51AFE60A46F2
:10250000DAE7059B84F8083200200BB0BDE8F08FB5
:10251000EC0E00202DE9F04104460D46164690F8D9
:10252000F83003F0FF071BB10C273846BDE8F081F7
:102530000146454807F062F820288046F4D058222A
:10254000394604F1D00008F0F1FD84F8D080C4F8D9
:10255000D450FF2384F8F83035B101F031FD00F09C
:102560000700013085F8E40102234FF00008A4F8C9
:10257000083184F800810CF0FDF900F19E05204639
:102580000BF0A4FFADB2014670B30AF018FD00F5E0
:10259000CD6189B230460CF0E1F93044C4F8040151
:1025A0000CF008FA281841F10001C4E944010120A7
:1025B00084F8D800A4F826800CF046F8DB3E361AE2
:1025C000C4F8DC604FF0FF326FF00043C4E94623EB
:1025D00094F8D00004F5807107F056F948BB40F23A
:1025E000C1113020FEF7E0F820460BF093FEDFF833
:1025F0005C80DB30C4F80401B8F8080048B1E08C16
:1026000038B101F0DDFCB8F80830B0FBF3F202FBA2
:10261000130005440CF0CEF92D1841F10001C4E976
:102620004451002ECED0751941F10001C4E9465144
:10263000CEE7D4E944230021C4E93A23C4E93C238A
:1026400020460BF060FF70E735C10000EC0E002063
:10265000F0B5002385B0CDE9003301238DF80630B5
:102660006846FEF7C1FD70B11B4E0123B37200270F
:10267000CDE9027702A8FEF7B7FD0546A8B1002311
:10268000B37205B0F0BD009809F00DFEE8E790F8D0
:102690000B0207F0EBFE94F80B0284F8F45106F0FD
:1026A000D9FF202384F80B32E2E7029B002BE1D014
:1026B00093F80B22202ADDD018884FF6FF7398423A
:1026C000DDD02946FEF756FD04460028DFD140F252
:1026D0002B113020FEF768F8EC0E0020054B00228D
:1026E0000121DA7219709A7242F210721A81FFF7A0
:1026F000AFBF00BFEC0E0020014BD872704700BF87
:10270000EC0E002008B504F083FA044BDA6882422C
:102710002ABF987A002080F0010008BDEC0E00204E
:102720002DE9F7430446062900F2C480DFE801F0F2
:10273000047A67777E83BD00D0E98A23D0E98C01D3
:1027400082428B4149D294F80A32002B45D094F84A
:10275000F431032B41D194F869900AF030FC06461D
:1027600094F8B001FFF746FCD4E98A23D4F830721C
:10277000D4F8C851804606444846BF1A04F00AFF00
:102780002D1A484604F00EFF00F523404FF47A73EB
:10279000A130B0FBF3F02B1AA3F17402B6B25208C9
:1027A000D43B08F5C8689D3273431FFA88F8B3FB21
:1027B000F8F360335908A2EB53039F4202D30A4453
:1027C000974201D90CF0D2F8A06931460CF0C6F856
:1027D0000023C4F8FC0184F80A32384B9B7A03F0DA
:1027E000FF0263B9B4F8BC11009201232046FFF741
:1027F0000FFC38B140F2CA613020FDF7D5FF042349
:1028000084F8F43104F08AFC06F0B0FDB4F88820B6
:10281000A4F806220023A4F8423284F8093203B057
:10282000BDE8F083032380F8F431F8E704F010FAF0
:10283000C4E98C01F3E78569D0F8FC31DFF87C80CE
:102840009D4288BFED1A98F80B3098BF00251BB940
:10285000036B9D4228BF1D4604F13000D4F8C871B7
:102860000BF05CF90744022007F084FCED1B25EA1D
:10287000E575854228BF05460221284607F0CEFCB3
:1028800000B92F4440F2D312394620460BF097F995
:10289000D4F8C831C8F80C00A069184407F01CFC33
:1028A0000028BCD140F27931A6E703B0BDE8F0437F
:1028B00009F0D7BA40F265719EE700BFEC0E002028
:1028C0002DE9F84306460C4615467ABB04F0A0F9FC
:1028D000D4E94489074684F8D85084F8F850012197
:1028E000D4F8D40000F0D8FFD4F8D400C0E98A8925
:1028F00094F8D03080F80B32C0E98E89C0F8447269
:1029000009F0CAFB20B140F20A713020FDF74CFFFC
:1029100004F004FC06F02AFD074994F8D000324682
:1029200005F0D8FB28B94FF4EF61EEE740F28F7164
:10293000EBE7BDE8F88300BF8BBE0000014B1881B8
:10294000704700BFEC0E0020F0B5070CA7F5AA42B7
:10295000144B543A012A03EA90231FD927F400406C
:1029600042F6AA22801A18BF01200022162116461C
:102970001F2487EA060562EA0505013510D0DD034C
:10298000ADB245EA5606E503ADB2013945EA520259
:102990004FEA53034FEA5404EBD1F0BD0020E4E7C3
:1029A0000020FAE7E0FF3F0010B501210020FEF70C
:1029B000E1FB044670B90121FEF79EFB044620B9F5
:1029C00040F245313920FDF7EFFE034B93F900103B
:1029D0000BF064FC204610BDFC0E0020304BF0B51F
:1029E0005A88B0F85C70B0F85A609D88974228BF4A
:1029F0001746964228BF16461B2E85B00C462ED091
:102A0000B5F5A47F2DD040F648039D4201A928BF0B
:102A10001D4609F0BAFDBDF80A309F4228BF1F4687
:102A2000BDF80C30E780AB4228BF2B462381BDF8B0
:102A300006309E4228BF1E46BDF8083066809D4283
:102A400028BF1D46A580FF232370E3881B3B9BB254
:102A5000E02B08D940F2FF513920FDF7A5FE1B2FCE
:102A6000CED105B0F0BD63881B3B9BB2E02B02D9F1
:102A700040F20161F0E72389A3F5A4739BB2B3F59B
:102A8000E06F02D940F20361E6E7A388A3F5A473DF
:102A90009BB2B3F5E06FE4D940F20561DCE700BF1B
:102AA000FC0E002008B50AF099FC00F001FE00F0D1
:102AB000EDFB0AF0AFFF00F08FFF01F093FE00F096
:102AC000A3FF084B1B224FF4A4715A809980064B38
:102AD00006499A8000221960DA825A821A835A744F
:102AE00008BD00BFFC0E00202413002003021B00C1
:102AF000044B41F64C52C3E902221B221A74FFF721
:102B0000D1BF00BF241300202DE9FF41344DAB6835
:102B1000044640F8303F09F0FDFB064600F0A6FBF6
:102B20002B7C84F838302F4B668710F0200F1B6801
:102B30001DBFAA886988A4F85A101B2208BFA4F8F0
:102B40005A20A4F85C201BB194F96C102088984797
:102B5000AE7CEF7CB5F8148041F64C53A36116B9F6
:102B600000F08AFB064677BB00F086FB074666B39B
:102B700058B303A920468DF80C608DF80D70ADF8A0
:102B80000E800AF0CDFCAB886A8869780191033326
:102B90002978009103329BB292B204F1140104F13E
:102BA0001000FEF759FB236913B940F2D65114E027
:102BB000636913B940F2D7510FE0002004B0BDE8BB
:102BC000F0810920FAE7002ED3D120880021FEF7FA
:102BD000E7FA0028F5D040F2C1513920FDF7E4FDB5
:102BE0002413002018050020F7B505460E460BF00B
:102BF0008CFB002873D028460BF068FC40B1B6F877
:102C00000130013B7F2B03D91224204603B0F0BDD5
:102C100028460BF05FFC08B90C24F6E7284609F0BB
:102C20002EFC0028F8D128460BF029FB044600288A
:102C3000F2D1284602F096FA0028E5D0B6F80170E5
:102C4000F17842F2107328465F430BF02CFC2846C3
:102C50000BF034FC014658B93A462846FFF75AFCB7
:102C600004460028D1D041F687113920FDF79CFD9C
:102C700021460DF10600FEF707FA064668B3214625
:102C800000F00AFEBDF806303380284631460BF0CE
:102C90002BFC28460BF024FC98B928460BF022FCAC
:102CA00001463046FFF730FF04460028ADD13A46D2
:102CB00031462846FFF72EFC044620B141F6AA1102
:102CC000D3E70121EDE7074B9B68002B9DD002461F
:102CD00006F595713046984797E70D2495E742240D
:102CE00093E700BFFC0E0020034B5A8802801B783C
:102CF00083700020704700BF2413002037B583780D
:102D00001A2B054609D8042B05D9012202FA03F330
:102D1000134A134205D112241AE0292B01D03B2B70
:102D2000F9D12888B0F5706FF5D269460AF096FBA4
:102D300088B9019B93F8282102F0FF046AB9AA78A8
:102D400083F82921FF2283F8282168460AF03DFEF6
:102D5000204603B030BD0224FAE70C24F8E700BF98
:102D6000200038040188A1F11B039BB2E02B0CD892
:102D70004288A2F5A4739BB244F24810834204D85F
:102D8000034B002059809A8070471220704700BF83
:102D9000FC0E0020034B5A889B8802804380002051
:102DA000704700BFFC0E002038B504784278857863
:102DB00004F0010352EA030104F0020401D11120DE
:102DC00038BDBCB9002DFAD0002B08BF144601E075
:102DD00000242546204609F091FB0028EFD0284624
:102DE00009F08CFB0028EAD0054B00209C74DD74B0
:102DF0009882E5E7002BEBD114461D46EAE700BFB9
:102E00002413002013B5008869460AF027FB18B187
:102E10000224204602B010BD019A92F8F431DBB2D0
:102E200092F8B020002AF3D113F0FB0FF0D00198F4
:102E300090F83A310BB13A24EBE790F8DC3003F02C
:102E4000FF04002BF7D190F8D3309B0706D1FF2366
:102E500080F83A3168460AF0B8FDDAE70249D43022
:102E60000AF0E3FDD5E700BF55E10000F0B50778B3
:102E7000EF2F85B004460D4603D91225284605B02C
:102E8000F0BDB0F80130ADF80C309DF90C209DF884
:102E90000C30002AF1DB9DF80D209107EDD1DA0608
:102EA0003FD49E0603F0030238D5002AE5D1180767
:102EB000E3D46378190711D42179E278E07942EA02
:102EC0000122617942EA0142A17941EA0021207A96
:102ED00041EA00418A42D0D81F2ACED9627A013A0B
:102EE000062ACAD8A27A032AC7D813F0040102D14D
:102EF000023A012A03D8E27A012ABED811B9A27C8B
:102F0000032ABAD813F01001227D19D0012AB4D1B6
:102F1000227E012AB1D8B1B91125AFE7032AC6D163
:102F2000ABE713F0600FA8D103F00F0203F0070323
:102F3000052BBED0931E012BBBD9002A9DD1B8E72B
:102F4000022AE5D199E7DA071FD46378227D03F0DE
:102F5000180108291ED1022ADED11B0709D4E27903
:102F6000A37943EA0223227A43EA0243B3F5804F6E
:102F7000D2D8BFB201213846FEF7FCF8064678B138
:102F800009F07DFAB8B10C2578E700F031F9002896
:102F9000DBD1C1E7022AE0D0A27E002ADDD0BBE768
:102FA00001213846FEF7A8F8064650B3164B93F9B0
:102FB00000100BF073F930460BF07DFA21462870B3
:102FC000E07430460BF0C2F9637E0546002B3FF4F7
:102FD00055AF00287FF452AF316B02466846FEF7CA
:102FE000FFF9306B2A46012108F067FE316B684615
:102FF0000422FEF7F5F9306B2A46294608F05DFEFB
:103000003CE707253AE700BFFC0E002070B50579C4
:10301000042D8AB0034658D84488B4F5804F54D85C
:103020002B48465D284400214279857AC07BADF863
:10303000041042F0100242EA460242EA850242EAE5
:10304000C00202F01F028DF80420BDF80420ADF884
:103050000D201A888DF80F208DF81240120A240ACC
:103060008DF811108DF814108DF810208DF8134084
:103070005A7B8DF815205A798DF816209A79D3F855
:1030800007008DF81720B3F80B209B7B8DF81E30BE
:103090007F238DF81F3001238DF80C1006908DF8DA
:1030A0002110ADF81C208DF820308DF8223003A8B7
:1030B0008DF823108DF824108DF825108DF826102A
:1030C00001A9FFF7D3FE0AB070BD1220FBE700BFD5
:1030D0009C4102000278034672B1427862B1428894
:1030E0001A2A09D982881A2A06D9044A0068106067
:1030F0009B88938000207047122070472413002083
:10310000024B02689A600020704700BF2413002021
:103110000378A3F10A02112A9DBF024A002013740A
:10312000122070472413002008B5052000F090F805
:1031300003F0F8F9014B024A9A6008BDFC0E00202A
:10314000DD29000008B501F0F5FFFFF7C7FABDE87B
:103150000840014801F0D8BF080F002010B50B4C03
:10316000012384F8023101F0EDFF0BF02DFB0AF092
:1031700033F904F203112046FEF734FB002008F077
:103180003BFDBDE8104000F027BE00BF080F002047
:1031900010B5064C064904F5027009F0D5FE04F599
:1031A00003700449BDE8104009F0CEBE080F0020AE
:1031B0001C0500202405002010B5094C094904F520
:1031C000027009F0C1FE04F50370074909F0BCFE66
:1031D00004F504700549BDE8104009F0B5BE00BF14
:1031E000080F0020340500203C0500202C0500209D
:1031F000014B93F802017047080F002010B5074CEF
:1032000000F0E4FDD4F8080209F096FEFFF770FC28
:1032100000F0EEFE012384F8143210BD080F0020E8
:10322000014B93F814027047080F002010B5074CAB
:10323000D4F80C0209F080FED4F8100209F07CFEEC
:10324000FFF730FC002384F8143210BD080F002073
:10325000C2080549012300F0070003FA00F08B5C67
:1032600018438854704700BFD0040020014BD3E9B5
:1032700000017047D0040020034B1868C0F3002001
:10328000400040F001007047D004002008B50BF06A
:103290006FFB084A002332F82310814205D302EB6A
:1032A00083039B78044A137008BD01330C2BF2D1C1
:1032B0000023F7E7B04102001D11002010B544685B
:1032C0002388A4F8783194F8683084F87711012BBA
:1032D00006D0022B04D040F20B310620FDF764FA31
:1032E00084F87A3194F86930012B01D0022BF2D1A5
:1032F00084F87B31044904F5B7700AF096FB00238B
:1033000084F8343110BD00BFC3CF000040680849C5
:103310000388A0F86A3190F8603080F86C3190F83A
:10332000613080F86D3100F261100AF078BB00BFA7
:10333000D9CF0000044B002283F822204FF6FF7201
:103340009A84DA841A8570471E110020054B9A8CE6
:10335000824201BF002283F822204FF6FF729A8436
:10336000704700BF1E110020014BD884704700BF7A
:103370001E110020094A0346908C4FF6FF718842C7
:1033800006D192F82210012905D01A600120704759
:103390000020186070470020704700BF1E110020F9
:1033A000064B93F82220012A1FBF0120DA8C83F8F4
:1033B00022009A8408BF0020704700BF1E11002021
:1033C000014B1885704700BF1E110020064B0246B6
:1033D000198D988C884205D193F8220018B113609A
:1033E00001207047002070471E110020094B998C66
:1033F0001A8D914201D0002070474FF6FF729A84D7
:1034000093F82220002AF6D0002283F822200120FF
:10341000704700BF1E110020054B998C1A8D9142F8
:1034200003BF93F82200B0FA80F0400901207047F2
:103430001E11002050B90A4A1346012003F8010B5F
:103440000868C2F801008A889A807047012805D16F
:10345000034B0A689A608A88D8719A81704700BFC6
:103460004811002048B90A4B187880B1D3F80120E0
:10347000B3F805300A608B807047012806D1044BF1
:10348000D87920B19A680A609B89F4E700207047D8
:103490004811002020B9054B187800F00100704752
:1034A00001280ABF014B0020D879F6E74811002017
:1034B000F7B500228B888DF80600ADF80430086857
:1034C0000C4B8DF80720019D1C78014603F5AC7369
:1034D000D0B2844201D8082009E0D3E90076AE4298
:1034E00008BF8F4203F1080302F10102F0D103B0DB
:1034F000F0BD00BF5811002030B5094B01465C7883
:10350000002203F58173D0B2844201D8082005E07F
:1035100013F8015B8D4202F10102F4D130BD00BF0E
:1035200058110020F0B5254D95F8984189B02246F4
:1035300005F29911684607F081FD2146684609F0B9
:103540006CFF0446B8B300EB4001C9B202A8FDF716
:103550006DFB601E95F8A161C0B2012495F8982119
:1035600005E0731CB3FBF2F102FB1133DEB206F18E
:1035700020030DEB030111F8203C002BF1D100EBEF
:10358000400220326A4406EB46032B4412F8187CB2
:1035900083F8A27112F8177C12F8162C83F8A37125
:1035A00083F8A42101F8204C0138AB19C0B2FF28E0
:1035B00083F89941D2D109B0F0BD00BF5811002065
:1035C00070B5064688B00C46002A4FD02A4A92F8B9
:1035D000A131D01890F8991121B94FF480712820A9
:1035E000FDF7E2F803EB43011144013391F8A251D6
:1035F000E57091F8A35191F8A41161710021257132
:1036000080F8991192F89811B3FBF1F001FB103397
:1036100082F8A13192F8C23123B9184902F5DD7060
:103620000AF000FA657905F03F0545F0400565713F
:103630000D220021684607F079FDE3788DF80F3000
:1036400023798DF80E3004AA0423694630468DF89C
:103650000D5007F0DDF99DF81F3023709DF81E30E6
:1036600063709DF81D30A37008B070BD0321601811
:10367000FDF7DCFAD6E700BF581100202535000021
:10368000044B5A78824286BF1B1893F84A010020E7
:10369000704700BF58110020044B5A78824286BF01
:1036A0001B1893F842010020704700BF58110020FA
:1036B000064B00224FF461711A8083F8C32183F80E
:1036C000C421A3F8C61183F8C22170475811002005
:1036D000014B83F8C401704758110020014BB3F827
:1036E000C60170475811002030B50A4B5C788442FF
:1036F0000ED9184490F802012B3003EBC004A579D1
:103700000D7053F830001060A3889380012030BD05
:103710000020FCE7581100200246074810B590F839
:10372000C34124B1417821B1023002F021FF20468B
:1037300010BD0C46FBE700BF581100202DE9F74FE4
:103740002F4C9A46637883428046894656D923187F
:1037500093F8425185F00105F9B193F84A31E3B984
:1037600045F002070135BAF1000F18D1FA070AD562
:10377000062101FB084104EB0810524601F5857152
:103780008230FFF71DFFBB0734D504EB081052460B
:1037900049460230FFF714FF2CE02F46E3E794F888
:1037A000A1614FF0010B002DE0D0A319019393F814
:1037B000991199B90092DAB100F0EAFB06EB4601E3
:1037C0002144019B81F8A2014FEA102C009A81F854
:1037D000A3C1000C81F8A40183F899B194F8983141
:1037E0000136B6FBF3F103FB1166F6B2013DDAE7F1
:1037F00047F00407384603B0BDE8F08F0027F9E72B
:1038000058110020074B5A78824209D91A1892F8A9
:1038100042212AB9062202FB003000F5857070476C
:103820000020704758110020064B5A78824281BF11
:103830001B1893F83A01B0FA80F0400998BF0020B5
:10384000704700BF5811002030B50024A0F8424056
:10385000B0F8464042F210754C43B4FBF2F4A0F8C5
:103860004640541E05FB0343B3FBF2F3A0F844307B
:10387000084BB3FBF2F30133A0F84A30838F05FB0A
:103880000344436BB4FBF2F459438463B1FBF2F29B
:10389000426330BD005A620270B504460D4649BB12
:1038A0004FF4207207F042FC012384F896306FF049
:1038B000360384F8E330042384F8E4306FF03B03EC
:1038C00084F8E5306F2384F8E6306FF03F0384F826
:1038D000E7302B2384F8E230FE2384F81E317F2367
:1038E00084F88D30202384F8E85084F8E95084F877
:1038F0000B3270BD012922D10023A0F8CC3180F811
:10390000C331154B82691344B3FBF2F3C0F8B830EE
:1039100040F6B833A0F8BC301146438C8030FFF736
:1039200093FF07F045FA30B1E069FFF70DF810B9E1
:1039300084F8AF51DDE7002384F8AF31D9E70229DD
:10394000D7D1B0F86232D0F85C228169BDE870400E
:103950008030FFF779BF00BF7FC3C901034B80F8F8
:103960006C101B680BB10088184770474405002095
:10397000074B93F900301844142804DC10F17F0F32
:1039800003DB40B27047142070476FF07E00704731
:103990002013002007B57F230DF107008DF80730B5
:1039A00003F086FC9DF9073068B10A4A507840421E
:1039B00043FA80F0142808DC10F17F0F07DB40B2D7
:1039C00003B05DF804FB1846FAE71420F8E76FF03F
:1039D0007E00F5E720130020024B00221A705A7077
:1039E000704700BF20130020054BFF221A70054AC4
:1039F000016811600179117100221A70704700BFCF
:103A000022130020D804002007B5064B1868009048
:103A10001B798DF804306846FFF7E6FF03B05DF8C8
:103A200004FB00BFAC8E02000346407848B1DB784F
:103A30003A2B05D8034AD35C1B1A584258417047A9
:103A400001207047E04102003A2908B5C17003D84F
:103A5000064B5B5C437008BDFF2904D04FF48961BD
:103A60002A20FCF7A1FE0123F4E700BFE041020099
:103A70002DE9F04385B0894602A91446984609F01D
:103A8000EDFC0546002839D1039E34B9012486F89F
:103A90009540204605B0BDE8F08337692146384699
:103AA00007F0E4FE014658B3174B5B88A34229D3C5
:103AB00001AA384608F01DF896F895300198002BB9
:103AC0000CBF4946022109F0AAFE01982246414650
:103AD000033007F0B3FA2146384607F00CFF0446DE
:103AE00018B97A212B20FCF75FFE02A809F06DFFC0
:103AF000039BA3F8BA5186F89550CAE70124C8E79A
:103B00000446C6E72C46C4E724130020024B987DE8
:103B1000C04300F00100704724130020034B987D40
:103B200080F00200C0F34000704700BF2413002063
:103B30007FB505460C4621B940F215111020FCF75F
:103B400033FE03888B8000234B724669304607F0B2
:103B5000C2FF014610B94FF48F71EFE701AA30465A
:103B600007F0C7FFE08010B940F22311E6E7FB2819
:103B700002D940F22511E1E7019809F058FE012829
:103B800001D0022805D12072206828B94FF49E7117
:103B9000D4E740F23511D1E70199E288033107F00B
:103BA0004DFA304607F0ADFF10B940F24111C5E7BC
:103BB0000021304607F003FF10B94FF4A371BDE7B1
:103BC0000A4BDA7D82B11A8B2888013A02A91A833E
:103BD00009F044FC10B140F24F11AFE7039AB2F87C
:103BE000A6300133A2F8A63004B070BD2413002023
:103BF00010B521B940F25B211020FCF7D5FD4A60D9
:103C00000B72EFF3108472B6031D0B6042681AB199
:103C1000127A012A08BF036003681960016004B9C1
:103C200062B6034BBDE81040587807F01DB800BFDE
:103C3000401300202DE9F74306460D464FF00508D6
:103C400000274FF003092B693BB11B7A2BB12C697C
:103C50009CB9002003B0BDE8F0836C68237A012B87
:103C6000F7D0EFF3108372B66A6812686A6003B91E
:103C700062B6237A002BE6D02C61237ADBB284F87B
:103C80000880013B0B2B66D8DFE803F06206203486
:103C90005F653D6565656552636823B940F2C7118C
:103CA0001020FCF781FD2046314698470420EFF3B1
:103CB000108372B6227A052AD1B201D0002953D1DD
:103CC00027722F61002B4BD162B649E0636813B9AC
:103CD0004FF4E871E4E73146204698470346C3F3C2
:103CE0000723012BADF80400C0B237D0022BDED180
:103CF0002F6135E0636813B94FF4ED71D0E72046CA
:103D000098470020D3E763680BB9DA21C8E70B2294
:103D100032701988A6F80310012200241869B270C5
:103D20007271B471214607F04AFE2C61042091E7BC
:103D3000606810B940F20521B2E70E4B31461B68AE
:103D4000984700232B61022084E740F20E21A7E769
:103D500040F21121A4E74FF40571A1E784F808901F
:103D600000283FF470AF75E7002B7FF46CAF62B6AC
:103D700069E700BF4805002070B5134C1426231DC9
:103D800032460021184607F0D1F903460125257473
:103D900000210433324604F11800C4E9013307F06E
:103DA000C5F984F8245004F11C03C4E90633002348
:103DB000E362236384F83430C4F83530C4F8393012
:103DC00084F83D3070BD00BF40130020014B587097
:103DD000FFF7D2BF40130020014B024A1A60704720
:103DE00048050020313B000038B50B4D05F11801A6
:103DF0000446FFF71FFF70B9AB681B7A0C2B04D188
:103E0000064BDA7D0AB11B8B2BB120460449BDE875
:103E10003840FFF70FBF38BD4013002024130020A7
:103E20004413002010B51346027A22B14FF42D71CD
:103E30001020FCF7B9FC0A46BDE8104001460148D5
:103E4000FFF7D6BE44130020044890F834301BB965
:103E500003492C3009F0E0BD704700BF401300203B
:103E60000BDA000010B50A46037A23B14FF42F7124
:103E70001020FCF799FC0146BDE8104001480723DB
:103E8000FFF7B6BE581300201346027A0AB1037238
:103E900070470A4601460148FFF7AABE44130020B6
:103EA0001B234FF01B128384038482618382C260D0
:103EB000038539B94FF4A473034AC3844384C261B0
:103EC000C3820261704700BF480148010346F0B455
:103ED000B3F85420B3F84840B3F84460DF8FB3F828
:103EE0004250944228BF14460846B3F84C20B3F819
:103EF0005610DC878A4228BF0A46B3F84610A3F85A
:103F00004220914238BF1146A64238BF2646A742FA
:103F1000A3F84460A3F846101FD1AA1A18BF0122C3
:103F2000B3F84A50B3F85040B3F852709E8FB3F8CC
:103F30004010A54228BF2546B3F84E409D87BC429D
:103F400028BF3C46AE42A3F8404002D1A14200D176
:103F50002AB1F0BC034909F068BD0122E0E7F0BCDA
:103F6000704700BF31DA00000B8BA2F80B304B8B8F
:103F7000A2F80D308B8BA2F80F30CB8BA2F8090082
:103F80000249A2F81130104609F049BD81DA00005B
:103F9000094AD2E90003434083EAB01181EA432190
:103FA0004FEAF3435360054B116058434FEAF0600A
:103FB00000EB8000704700BF80130020BB79379E64
:103FC000094AD2E90003434083EAB01181EA432160
:103FD0004FEAF3435360054B116058434FEAF060DA
:103FE00000EB8000704700BFE0040020BB79379EE3
:103FF00010B50A4C09480821FCF718FED4E9002343
:104000001343F7D0064CFFF7DBFF2060FFF7D8FF24
:10401000236860600343F6D010BD00BFE0040020B9
:1040200080130020174B184A9A60184A5A60184AA1
:104030001A60184A9A62184ADA62184ADA60184A0C
:104040009A61184A1A63184A1A62184ADA64184AB6
:104050009A64184A5A62184B184A9A60184A5A6267
:10406000184ADA62184A1A61184A5A61184A9A615B
:10407000184A1A63184A9A64184ADA64184A9A6302
:10408000704700BF4C05002049DD00007FDD0000C7
:10409000F7DD000081DF0000D5DF0000E94300000C
:1040A000EBDF000059460000CD440000CBE00000EB
:1040B000E7E0000025450000380600206BDD000029
:1040C0008BE000000DE00000B1DF000031E00000F7
:1040D0006D44000073E100001FE100000DE10000ED
:1040E00071E00000044B054A5A65054B054A1A6504
:1040F000054A5A65704700BF4C050020B7DE000036
:10410000380600209DDE000029DF0000054B064A2E
:104110009A65064A1A66064B064A9A65064ADA65A1
:10412000704700BF4C05002023D10000B9D100002A
:10413000380600205DD000009DD30000252A70B510
:1041400005460C4618D8012A19D9023A232A16D84E
:10415000DFE802F01A1525242433153515243944D7
:104160004815154D242467676D741515151515151B
:104170001515151515808990FF2A00F0828040F2F0
:10418000FE315120FCF710FB02784368012A02D16E
:1041900093F8203101E093F82931237170BD416813
:1041A000204601F5EB7109F0ACFB6968204601F58A
:1041B0008A71BDE8704009F0A6BB4368E8E7BDE836
:1041C000704000F011BA0E230B7159234B7100237C
:1041D0008B714E23CB7110230B72DFE7436893F88A
:1041E0001A31DAE7BDE87040084600F0EBB9037811
:1041F000466873B996F820315BB196F81D112046D8
:1042000009F0D1FB96F81C112046BDE8704009F07A
:10421000CEBB96F81B11204609F0C5FB96F81A1183
:10422000F2E741682046BDE8704009F042BD4368AE
:1042300093F83621227193F8373109E0436893F8F7
:104240003421012AF4D093F864200A7193F8653080
:104250006371A3E7104B1B68002B9FD002462320FD
:10426000BDE8704018470C4B1B68002B96D00246E7
:104270002420F5E7084B1B68002B8FD00246252031
:10428000EEE74368204693F84F22D3F85012BDE87A
:10429000704009F0D0BA00BF240700203A289ABF26
:1042A000024B53F820000020704700BF4C0500204F
:1042B0003A289ABF024B53F820000020704700BFF5
:1042C00038060020F7B545682E6904464FF6FF779B
:1042D0000DF102010DF101023046ADF8027007F058
:1042E00026FB01A9304607F045FB40B1019807F0D5
:1042F00006FC616800220272FFF7B4FDE8E704499A
:1043000005F1A80003B0BDE8F04009F088BB00BF8C
:10431000E3DC0000F0B5044685B00D46FF2600F84A
:10432000856C10F8863CF3B1174F3B781BB14821E0
:104330001F20FCF739FA0C21381DFCF777FC3E7082
:10434000002304F8853C2A46072302F8033BD4F8EF
:104350000930C5F80330D4F80D305360D4F811306B
:10436000936005B0F0BD01A80C21FCF75FFCA4F53B
:10437000A873039A1A6001AB03CB44F88E0C44F87F
:104380008A1C04F8866CDBE78813002010B5054C06
:1043900023782BB90C21201DFCF748FCFF23237048
:1043A00010BD00BF88130020024690F8DE31BBB973
:1043B00090F8DF3103F0FF010BB100207047094B8B
:1043C00018780028F9D01970D968C2F8141104338C
:1043D00003CBC2F8D601C2F8DA11FF2382F8DE312E
:1043E000012070478813002038B5426892F88F305A
:1043F00004460D463BB1132B05D0113B0B2B94BF4C
:104400000820012038BD92F8D23013B9204609F0B7
:104410000EFC6168284601F5E77109F067FA6168EA
:10442000284601F5887109F068FA61680B88A1F8DF
:104430006D32284601F26F2109F050FA6168284672
:1044400001F2772109F04FFA6368002583F8DE5105
:104450006068054900F5197009F0DEFA63681522F5
:1044600083F88F202846CDE71543000038B5436810
:1044700093F88F201C2A044604D040F2BB111F2061
:10448000FCF792F993F8D2101D88002283F8D1200E
:1044900003F5D17069B10B4983F8D220A3F8AC5170
:1044A00083F8AB2109F0B8FA6368002283F88F2003
:1044B00038BD012283F8AB11A3F8AC51024983F84F
:1044C000AE21EFE76DDF00005FDF0000436830B52D
:1044D000D3F8804014F001001FD14D68104A89685C
:1044E000A3F8CE002A40C3F8E220C2F3076242F0EC
:1044F000080221F41E5121F0100183F8E52093F801
:10450000D0200904090C013244F00104C3F8E6107C
:1045100083F8D020C3F8804030BD0120FCE700BF05
:104520002FC904F710B5406890F88E30042B2FD1B6
:104530004C688A68184B22F41E522340C0F8E230BF
:1045400022F01002C3F3076343F008031204120CB5
:1045500080F8E5300023C0F8E62080F8CC3080F801
:104560008E3090F8842102F0FF049AB90388A0F8F5
:10457000863180F885414B68C0F888318B68C0F877
:104580008C31064900F5BE7009F046FA204610BD90
:104590000124FBE71C46F9E72FC904F74FE00000B0
:1045A000406890F8843153B90388A0F886311A2303
:1045B00080F88531024900F5BE7009F02DBA7047C8
:1045C0004FE0000010B50446FEF750FE21F41E51E6
:1045D000044B21F0100109040340090C6360A16041
:1045E00010BD00BF2FC904F737B50C464568FEF76C
:1045F0003DFE0A4B95F8E22021F41E5121F01001F6
:10460000034009040093090C13408DF80030019118
:104610006B4603CB6060A16003B030BD2FC904F7C7
:10462000DB0410B5144604D5037D13B100234363A6
:1046300010BD436B0133436309F07EFDD0E90D23C8
:104640009A42F5D30023436302492046BDE8104057
:1046500009F0EBB9BDE0000038B5446894F88E303D
:10466000012B0D4603D0D4F88030980745D494F838
:10467000D330990719D4284609F048F984F8DD00A9
:10468000B5F80530A4F8DE30B5F80730A4F8E0300E
:1046900094F8D33043F0020284F8D320DA0711D51E
:1046A000174904F1D40009F0C0F994F8D330DB07BE
:1046B00018D4D4F8803013F0020208D055214020DD
:1046C000FCF772F894F83A31002BE9D1EDE743F0AA
:1046D0000203C4F8803094F8D030A4F8CE2001331F
:1046E00084F8D03094F88E30012B4FF0000003D1C5
:1046F00084F88E0084F8CC0038BD0120FCE700BFB0
:1047000055E1000070B545680446FFF743F9054BD5
:1047100085F88D001B6801461BB12046BDE870403E
:10472000184770BD2C070020024B1B6803B11847C7
:10473000704700BF28070020F0B5204E05463078AE
:104740000024147080B1431E7768DBB2181B012867
:104750000BDC07EBC40057F834604068884208BFA0
:10476000AE4212D114700120F0BD1819461007EBAB
:10477000C60E57F836C0DEF80460AC45C0F34700FB
:104780008E412CBF03460446E0E7B54271EB0000C2
:1047900002D214700020E7E707EBC30057F833405C
:1047A0004068884208BFAC4201D11370DBE7A542E4
:1047B000814128BF01331370ECE700BFA81300202C
:1047C00010F0070208B503D063214820FBF7ECFF87
:1047D00018B1034B197258601A70C80008BD00BFA9
:1047E000A8130020014B00221A707047A813002064
:1047F000014B187A704700BFA81300202DE9D3435E
:1048000009F0E2FC0DF1070207460E46FFF794FFA0
:1048100098B9114C2278237A93420ED061681346DE
:104820006FF0604E9DF80700984209D301EBC0037A
:10483000C3E9007601322270012002B0BDE8D083C6
:1048400003EB0E0001EBC000D0E90089013BC0E999
:104850000289DBB2E6E700BFA813002037B509F0F4
:10486000B3FC0DF10702FFF767FF0446A0B10C4A45
:104870009DF8070013785568013BDBB213701A1AD4
:10488000D2B2411CD200834238BF002205EBC101E5
:1048900005EBC00006F08CFB204603B030BD00BF26
:1048A000A81300200A46822302F8033B0448036849
:1048B000C1F803304368536083689360704700BF5A
:1048C000B113002002481622002106F02FBC00BFC1
:1048D000B113002082B002AB03E903000B48437D13
:1048E00093B1530610D50A880280D1F83022B1F86E
:1048F00088304260D1F83422054982604380022228
:104900000C3002B0FFF7C0BA02B07047B1130020FC
:10491000A548000038B5074D044600F1510128684C
:1049200008F0F3FE94F850102868BDE8384008F00D
:10493000FABE00BFC8130020F8B504460E466588CD
:10494000407F15F00401134618BF04F15F013246A1
:10495000FEF7F4FEC20705460BD5012384F850305C
:10496000607FFEF74FFF0368C4F851308388A4F8D6
:104970005530AB070CD5094E0127306884F85E70BE
:1049800004F15F0108F0C8FE3068394608F0D4FE33
:1049900085F00400C0F38000F8BD00BFC8130020FC
:1049A00038B5C38D0E4D0133C385AB7C04462BB1A6
:1049B00002F070FC01F00EFE0023AB7400232B719B
:1049C00094F879302BB101212046BDE8384007F03A
:1049D00017BD637C13B1E28D9A42F4D20021F3E754
:1049E000C813002010B5094C2379012B02D023797C
:1049F000022B05D1A37C1BB102F04CFC01F0EAFDB7
:104A0000E069BDE81040FFF7CBBF00BFC81300202E
:104A100070B5294C2379012B07D02379022B04D0C0
:104A200040F63C412D20FBF7BFFEA0B90125A37C39
:104A30001BB102F02FFC01F0CDFD002D3AD0E06952
:104A400007F056FC002830D002F01AFB236ABDE8BC
:104A500070409B6818472168E26911F8095B02F110
:104A60005103E80992F8502008F0B9FC0028DDD085
:104A70002068002108F085FE0028D7D02379E0695E
:104A8000012B05D02379022B02D040F61541C9E74E
:104A90002379226A03F180435269013B05F00F013B
:104AA00052F8233098470546C1E7E069BDE87040F9
:104AB000FFF776BF70BD00BFC8130020074A03464A
:104AC000D06903B909B9FFF76BBF1379126A03F113
:104AD00080431269033B52F823301847C813002063
:104AE0002DE9F043032985B0054690467BD090F828
:104AF00078300529DBB202D14288D60760D5002B79
:104B00005ED10127DFF8E89099F81260B6B108F09D
:104B10009BFC082888F8000014D002AA0DF10701B8
:104B2000FEF7E2FD20B940F685612D20FBF73CFE43
:104B30009DF8070002A909F053FB064698F80030DB
:104B4000082B08D1D9F8001011F8030BC0F380101E
:104B500009F046FB0646D9F8001095F8572011F8E1
:104B6000030B05F15803C0F3801008F038FCD9F8A6
:104B70000010044611F8030BC0F3801008F05AFC33
:104B80008146FEF751FE014640B1B9F1080F1BD036
:104B90004846FEF775FD80F00101C9B298F80000A3
:104BA000082815D094B96B7F1C1A604260416B884D
:104BB0005A0706D421B996B9EB7C93B1BB4210D009
:104BC000002005B0BDE8F0830021E7E70120EEE713
:104BD00014B181F00104E4B204F00100E7E73046CB
:104BE000EFE70120EDE743889B07E9D5022789E736
:104BF000C81300202DE9F04F85B008230DF10702FE
:104C0000052104468DF80730FFF76AFF064620B9F4
:104C10000026304605B0BDE8F08F7A4F3968FA7C3F
:104C200011F8030B07F11403C0F3801008F0D7FB51
:104C300080460028ECD13B68216A184691F89620FE
:104C400010F8035B02EA551202F0010281F8962087
:104C5000D3F80320C1F803208288A1F80720194661
:104C6000226A11F81F0BC0F38010907009798DF83B
:104C70000C10D3F80F10D3F81F00D161597D0290AA
:104C8000187D090441EA0021D87C01435162B3F840
:104C9000191040F2E24909FB01F191619D7DC5EBDC
:104CA000451105EB810505EB85056D009585B3F88C
:104CB000171009FB01F19162B3F81B101184B3F8CE
:104CC0001D10518493F8243003F01F015B0982F812
:104CD000A21082F8B031256A94F912B002A905F148
:104CE000960008F06AFC40F20113A5F868304FF016
:104CF000FF0A85F86AA0414605F13000FFF7D0F8B9
:104D000059462846FEF72AFE236A84F883801A88CB
:104D1000A4F8842084F8A1A04FF6FF72A4F8A22082
:104D20009A69B2FBF9F2A4F89A201A8CA4F89C2094
:104D30005A8CA4F89E2093F8B02184F8A020227FFA
:104D40009DF8070004F18E015AB394F85020012A0F
:104D500027D194F8562002F0C002402A21D1D4F87D
:104D60005120C4F88E20B4F855208A809A7884F8AF
:104D70008720082803F1030504F18802D3F80330E3
:104D800004F1940134D0C4F89430AB888B8004F1E2
:104D90008701FEF7A9FC40B940F69B312D20FBF7B7
:104DA00003FD0022C4F88E20DFE794F8873043F03B
:104DB000020384F88730144904F17A0008F02CFECD
:104DC000236A12491A88A4F8BB2093F8963084F815
:104DD000BD3004F1B20008F01FFE0D4B206A1B68C5
:104DE00000223A71002B3FF414AF2146984710E798
:104DF000C4F88830AB8893800023C4F894308B804B
:104E0000D9E700BFC813002023E20000F5E100004D
:104E100034070020032973B5044604D0052952D075
:104E2000012002B070BD08230DF107028DF8073094
:104E3000FFF756FE0028F3D0237C284D03B39DF8DE
:104E4000070094F8C630DBB9237884F8C730082807
:104E500004F1C90228D004F1C801FEF745FC20B9CD
:104E600040F6FB612D20FBF79FFC94F8C83043F01F
:104E7000020384F8C8301A4904F1BE0008F0CCFDE2
:104E80002B68062204265A701E702046FFF742FD4A
:104E900094F84020E16B286808F064FC28682E71C3
:104EA00002F088F90020BCE72868034613F8031BCA
:104EB000C1F3801184F8C810D0F80310C4F8C910E9
:104EC0009B889380D7E7074B1B6823B1984780F0F6
:104ED0000100C0B2A5E71846A3E700BFC813002031
:104EE0000BE2000030070020F8B504460F4619B366
:104EF00000F12805284609F080FBA0B963881A074D
:104F00002ED5284609F090FB0646284609F075FB89
:104F1000301AC0B209F098FB444A9368034428460B
:104F2000936009F046FB284609F048FB01F0C8FFF2
:104F30002179252001F0BCFE3C4D94F85E202868C4
:104F40000023037043706388103B0D2B5ED8DFE8AD
:104F500003F0595D550C5D405D5D5D5D5D5D5D40DF
:104F60002046BDE8F840FFF71BBD06234370202311
:104F700003702046FFF7CEFC638823F008039BB242
:104F8000152B05D094F83820616B286808F0DBFBFE
:104F9000286802F00FF9032321792B71002001F01A
:104FA00095FF064607B9E86063881B0704D509F03A
:104FB00048FB0644C4F8E0606388103B0D2B30D8F2
:104FC000DFE803F0322F29292F292F2F2F2F2F2F02
:104FD0002F290C2343702123037042B104F15F0198
:104FE00008F09AFB0121286808F0A6FBC1E704F14C
:104FF000580108F091FB94F85710F4E7062303706A
:105000004370B6E7022303700623F9E740F22661F6
:105010002D20FBF7C9FB21790120BDE8F84002F003
:1050200053B940F6AA41F3E7F8BD00BFC81300200A
:1050300038B54388102B044604D1BDE8384001211F
:10504000FFF752BF0B4DAB7C23B101F0A9FA402012
:1050500002F014F9286802F0ADF8608810F004003E
:1050600002D1217902F030F9002002F0E3F80123A7
:105070002B7138BDC8130020024B0121D869FFF7FE
:1050800033BF00BFC813002010B5134CA37C1BB165
:1050900002F000F901F09EFAE06907F029F970B119
:1050A0002379E069012B0FD12379226A03F1804330
:1050B000D268013BBDE8104052F823301847E06940
:1050C000BDE81040FFF76CBC2379022BECD040F612
:1050D00043312D20FBF768FBC813002010B50948A9
:1050E000037903F0FF0453B918222146043006F077
:1050F0001DF802F0CFF801F06DFA204610BD0C2427
:10510000FBE700BFC813002010B5094C0023237132
:105110002060FFF7E3FF20B140F2F6212D20FBF7DE
:1051200043FB236A13B940F2F921F7E710BD00BF32
:10513000C8130020014B024A1A627047C8130020AE
:1051400024540000034B044A1A60044B044A1A60BA
:10515000704700BF30070020F54B000034070020E7
:10516000C12800002DE9F041067DB31EDBB2012B02
:1051700004468CBF4FF000084FF001087EB3B71E05
:1051800018BF0127012B36D800F1580190F85700BD
:1051900008F050F9082805462DD0FEF77DFA58BBD7
:1051A000657784F81C8084F85070FEF797FA0546FE
:1051B00009F000FC174BA5FB03351B1845EB010557
:1051C0000022C4E9123584F85E2011462046FFF71C
:1051D000B3FB70B940F293412D20FBF7E5FA374657
:1051E000082504F151010020FEF73CF90028D7D131
:1051F0000020BDE8F0810825022EF2D0E37E002BCE
:10520000F6D0D4F81530C4F85130B4F81930A4F8F9
:105210005530C5E740420F00F0B5464E327985B0B3
:10522000044602F0FF0312B90278FF2A04D140F6C7
:10523000A9112D20FBF7B8FA3382B3607371B371F3
:1052400080F879303C4B00933C4B01933C4B0293EC
:10525000336A68465B68039301F0A4FF01F066FDC2
:1052600002F018F801F0B6F9364801F003FE04F137
:105270002805354801F090FF284609F09AF928469C
:1052800009F09CF901F01CFE2179252001F010FDA8
:1052900094F9120001F0E8FD04F13401206B06F0EE
:1052A00029FD04F13C010746206B06F04AFD054646
:1052B00017B194F82430C3B90DB194F82550237F69
:1052C00013B963885B0709D5D4E912126FF0004364
:1052D0009A4208BFB1F1FF3F09D185B93068033068
:1052E000FEF71AFAB07405B0F0BD0125E7E709F042
:1052F00061FBD4E91223904271EB0303EDD3012249
:1053000005EA02012046FFF717FB68B1FEF7E6F950
:10531000054609F04FFB0D4BA5FB03351B1845EB6C
:105320000105C4E91235D9E7002DD7D040F6DE11CA
:105330007FE700BFC813002089500000114A000019
:10534000BD4A0000D6BE898E5555550040420F001B
:10535000F7B50446FFF760FF00212046FFF7C4FDC4
:1053600004F1680008F031F8236F0BB101221A60D4
:105370006388DB0721D50023114E256ACDE9003370
:10538000FF23F37405F10A076846FBF72DFFA0B968
:10539000009CA542F8D06A7A607A3B4604F10A0183
:1053A00008F01DF80028EFD0A378F374D4F80300B8
:1053B0007061044BB4F807209A8003B0F0BD00BFC1
:1053C000C8130020DC130020024BD8611B6A1B6845
:1053D000184700BFC813002043881B0710B50446B8
:1053E00011D5036A0A493C2280F883201B88A0F863
:1053F0008430FF2380F8A1304FF6FF73A0F8A2306D
:105400007A3008F009FBFF2384F8793010BD00BF23
:1054100023E20000154E0000315000007BE2000046
:1054200075E2000051530000E5490000795000008A
:1054300020540000185400001454000001380228C1
:1054400008B503D9C3212F20FBF7AEF913290A4B66
:1054500005D811290CD8102907D0D121F3E7152937
:10546000FBD103EB4003D88801E033F8100008BDFE
:1054700003EB40039889FAE71C420200F8B52F4B72
:105480001A88402842EA00021A8005D1042198684F
:10549000BDE8F840FDF744B9802801D10521F6E7C1
:1054A00000F00302032A04D140F6CA113120FBF7B1
:1054B0007BF910F0020418BFD960C50705D5CA787A
:1054C0001961062A0DD00B2A18D02CB1DA68D278CF
:1054D000052A1FD00B2A2AD0820644BF08221A753B
:1054E000F8BD9A6892F88F101829EED1002600278F
:1054F0000121C2E93C6782F89310E6E79A6892F8C6
:105500008F10122901BF002182F89310012182F827
:10551000D210DAE79A6892F88F101629DCD10024AD
:105520000025C2E93E45012182F89410D4E79A682B
:1055300092F88F101129CFD10021F5E7EC1300204C
:1055400013B5044601A8FDF715FF20B940F2CA7152
:105550003120FBF729F922220021019805F0E6FD10
:105560000198032108F05BF90198037823F01003F8
:1055700003702146FEF768FA019906482246FEF7B5
:10558000DDFDFDF70DFF10B940F2D471E0E702B088
:1055900010BD00BFF013002070B5274CA36893F82E
:1055A000566293F85752002E3FD193F86810002DA1
:1055B0003DD193F8692083F8681083F86920FF22B1
:1055C00083F86A201D4B1B680BB1A0689847A3683D
:1055D00093F83431012B02D056EA050303D0184862
:1055E0000021FDF76BFEA068303008F097FA054601
:1055F000A06800F24511FEF769FCA0680621FDF7DE
:105600008FF8A068303008F089FA8542044610D23D
:1056100002F080FD0146601B322838BF322004F0C2
:10562000FDFDB0FA80F0400970BD3146BFE72A4663
:10563000C1E70120F8E700BFEC1300203C07002081
:10564000F0130020002908BF1F21172810B50346BA
:105650000BD80D280DD90E3809280AD8DFE800F03C
:105660000B0909090B090B09110BA0F12303022BEC
:1056700023D9002010BDBDE810400021184608F0D5
:10568000E7BF114CA36893F88E20212A09D1201D71
:10569000FDF714FEA368002283F88E2083F8CC2047
:1056A000E7E72E2AE5D193F88F30A3F12002062AEE
:1056B000F0D92E2BEED02A21E9E7044B1B68002BF2
:1056C000D7D0BDE810401847EC1300203807002061
:1056D000114B09790246986890F88E30212B11D031
:1056E0002E2B0FD0282B0FD0042B0FD00F2B0FD029
:1056F0001D2B0FD090F88F30232B14BFFE201720C6
:10570000FFF7A0BF1620FBE72320F9E70E20F7E7FD
:105710001220F5E71420F3E7EC13002008B50C4B3A
:105720009B6893F81E21FE2A04D040F2D9713120E3
:10573000FBF73AF883F81E0111B9A3F8CE1008BDA3
:105740000022A3F8C820012283F8CC20F7E700BF8D
:10575000EC1300200C4A117D91B938B99068B0F86B
:105760005810828F91420BD8FCF7CCBF13881B07CF
:1057700008D5936893F89000073818BF0120704748
:105780000020704701207047EC1300204368D3F8D5
:10579000803013F0300F2DE9F74304460D4656D103
:1057A000084608F0CDF830B92946204603B0BDE8D8
:1057B000F04308F06ABA2846666808F0BDF8074664
:1057C000284608F0B5F88046284608F0B7F8814624
:1057D000284608F0AFF8303600904B46424639462E
:1057E000304608F0ADF91B4B1A88920711D5DA68DC
:1057F000D278142A0DD16268D2F8803043F01003B9
:10580000C2F88030204608F012FA002003B0BDE84C
:10581000F083626892F88E101D29ECD092F82B214B
:10582000002AE8D1626892F82A21002AE3D161684F
:10583000D1F8802042F02002C1F880209A681146F9
:1058400002F5A77231F8300BFEF78EFBDAE7012084
:10585000DCE700BFEC13002010B5164BDB681979AC
:10586000436893F88E20092A09D193F819218A42B6
:1058700005D1002283F88E2083F8CC2010BDD3F808
:10588000802012F0080407D022F00802BDE8104082
:10589000C3F8802008F0D5B9FF2905D1332283F859
:1058A0008E2083F84C42E9E740F2DE413120FAF7DE
:1058B0007BFF00BFEC13002010B50B794268172B5B
:1058C00092F88E2004460CD80D2B0CD9A3F10E01B2
:1058D000092908D8DFE801F00907070709070907C0
:1058E0001009232B26D0002010BD22460121BDE83F
:1058F0001040184608F0ACBE212A01D02E2AF2D161
:10590000204608F08BF9636893F88F20222AEAD0AA
:1059100093F8E32022F0010283F8E320626892F812
:10592000E33023F0080382F8E3301A212046FDF724
:10593000C5FCD8E7282AD6D1024B1B68002BD2D051
:105940009847D0E740070020F7B5814C054600286E
:1059500040F0B28023881F0735D5A36893F81E2135
:10596000FE2A04D14FF4AA613120FAF71DFFFE226E
:1059700083F81E2193F88F201A2A07D183F8D100CB
:10598000201D08F05EF9A36883F88F50A36893F890
:105990008E20332A42D03F2A49D0202A0AD193F8B8
:1059A0008F20A2F12001062901D92E2A34D12E22DE
:1059B00083F88E20A36893F89020072A02BF022262
:1059C000627583F81E212388DE0734D423885807A4
:1059D00000F1A080990713D5E368DE780D2E00F062
:1059E000A180112E00F0A080072E00F09F8030468D
:1059F000FEF75EFC0346002800F09A805548984761
:105A00002388DA0658D5A36893F88F200A2A53D141
:105A10000B2283F88F204FE02122C9E7012283F86F
:105A20004D22002283F88E2083F8CC20C2E749481B
:105A300008F0F4F8BEE7A368276993F88F30113BAC
:105A40000B2B0BD8FB78023BDBB2092B7CD8012255
:105A500002FA03F340F23332134275D03846FDF7B1
:105A6000E3FF20B939463B4808F00FF947E0FE78DC
:105A7000012E01D9162E0FD1A36893F88E0008F0DD
:105A8000F5F848B1A36893F88E20202A04D0212A83
:105A90000ED12E2283F88E20112E35D026D8072E37
:105AA00034D00D2E34D03046FEF7F8FB034621E00B
:105AB000162E0CBF20250225237D1B0713D5A368B6
:105AC00093F88F30113B0B2B40D9002601A90320FE
:105AD0000196FBF7F1FF019B2BB11E720C22A1680E
